:020000040800F2
:10000000A80600208901000891010008930100085A
:100010009501000897010008990100080000000000
:100020000000000000000000000000009B0100082C
:100030009D010008000000009F010008A1010008C8
:10004000A3010008A3010008A3010008A301000800
:10005000A3010008A3010008A3010008A3010008F0
:10006000A3010008A3010008A3010008A3010008E0
:10007000A3010008A3010008A3010008A3010008D0
:10008000A3010008A3010008A3010008A3010008C0
:10009000A3010008A3010008A3010008A3010008B0
:1000A000A3010008A3010008A3010008A3010008A0
:1000B000A3010008A3010008A3010008A301000890
:1000C000A3010008A3010008A3010008A301000880
:1000D000A3010008A3010008A3010008A301000870
:1000E000A3010008A3010008A301000800F002F822
:1000F00000F03AF80AA090E8000C82448344AAF188
:100100000107DA4501D100F02FF8AFF2090EBAE885
:100110000F0013F0010F18BFFB1A43F0010318473B
:10012000380F0000580F0000103A24BF78C878C17B
:10013000FAD8520724BF30C830C144BF04680C60ED
:10014000704700000023002400250026103A28BF35
:1001500078C1FBD8520728BF30C148BF0B60704739
:100160001FB51FBD10B510BD00F031F81146FFF7E7
:10017000F7FF00F06CFF00F04FF803B4FFF7F2FF59
:1001800003BC00F057F800000948804709480047C1
:10019000FEE7FEE7FEE7FEE7FEE7FEE7FEE7FEE737
:1001A000FEE7FEE704480549054A064B7047000094
:1001B000310C0008ED000008A8000020A80600206F
:1001C000A8020020A80200207047704770477546BB
:1001D00000F02CF8AE4605006946534620F00700B3
:1001E000854618B020B5FFF7DDFFBDE820404FF091
:1001F00000064FF000074FF000084FF0000B21F011
:100200000701AC46ACE8C009ACE8C009ACE8C009DD
:10021000ACE8C0098D46704710B50446AFF30080C6
:100220002046BDE81040FFF7A8BF00000048704717
:100230004400002001491820ABBEFEE72600020062
:100240007047000009480268416809481040B0F151
:10025000005F01D0002070470448814202D3054866
:10026000814201D30020F6E70120F4E70080000876
:100270000000FE2F000001082DE9F04100F022F8F7
:100280000D480068C01C20F0030800F023FB0B4C55
:100290000B4D002709E026683146284600F009FB8F
:1002A00000B904E0241D2D1D3F1D4745F3D300BFB9
:1002B00000F0FBFABDE8F0810800002000400008D3
:1002C0000080000810B500F005FB064C04E0204655
:1002D00000F0DCFA04F5806403488442F7D300F0B0
:1002E000E4FA10BD008000080000010810B500F01D
:1002F000F1FA064C04E0204600F0C8FA04F58064E8
:1003000003488442F7D300F0D0FA10BD0040000843
:100310000080000870B50A48046845682E4672B629
:1003200000204FF0E02108614861886104480549D8
:100330000860204680F3088800BFB04770BD000009
:100340000080000808ED00E010B5344800F030FBF4
:1003500004462CB900F071F804203149087010BD32
:100360002E484078012806D0022812D003282ED02B
:1003700004284DD140E02B482B49086000202B4930
:100380000860FFF7B3FF02202549087000F050F81D
:1003900041E023480078022816D120488178C01C0B
:1003A00000F050F8012809D11C4880781F490968DD
:1003B00008441E49086000F03BF807E00420184993
:1003C000087000F03AF801E000F037F823E0144834
:1003D000007802280DD1FFF74FFF03201049087065
:1003E00000F026F8FFF72EFF012804D1FFF792FF57
:1003F00001E000F022F80EE0FFF724FF012804D10D
:1004000000F016F8FFF786FF01E000F016F802E0B2
:1004100000F013F800BF00BF00BFA0E720000020DD
:100420000000002000400008040000200800002018
:1004300010B5792000F0ACFA10BD10B51F2000F007
:10044000A7FA10BD2DE9F04106460D4600F042FA2C
:10045000002431E01B4800681B49884204D300F0A7
:1004600024FA0020BDE8F0814FF0FF37AC4200DAFB
:10047000375D601CA84202D2305C47EA0027A01C0E
:10048000A84202D2305C47EA0047E01CA84202D2F0
:10049000305C47EA006739460A48006800F009FA0C
:1004A00018B900F002FA0020DCE706480068001DD9
:1004B00004490860201DC4B2AC42CBDB00F0F5F962
:1004C0000120CFE7040000200080000800F012FAAD
:1004D0000120104908701048104908600020104998
:1004E0000860002405E000F0F9F9012800D103E0DC
:1004F000641C0C488442F6D300BF00F0EFF928B921
:10050000FFF7A0FE012801D1FFF704FF01E0FFF78C
:100510001BFFFCE700000020004000080400002052
:1005200008000020C0C62D0030B504460B46154615
:100530000021081981B2C81881B2002204E0A85C29
:10054000084481B2501CC2B29A42F8DBC8B230BD36
:1005500010B5044624F0350111B90CB1012100E0B9
:100560000021084600F072FD0148C46010BD000083
:100570000020024070B504460425B4F1006F04D396
:1005800014498C4201D2012100E00021084600F00C
:100590005DFD4FF4302000F095F80546042D17D18D
:1005A0000D48006940F002000B49086108464461AB
:1005B000006940F0400008614FF4302000F082F8FC
:1005C00005460548006941F6FD7108400249086189
:1005D000284670BDFFFF0F080020024004200B4991
:1005E000C96801F0010109B101200EE00749C9689D
:1005F00001F0040109B1022007E00449C96801F0D3
:10060000100109B1032000E00420704700200240DF
:100610000348006940F0800001490861704700000C
:1006200000200240F8B504460D4604260020009044
:10063000B4F1006F04D31B498C4201D2012100E0C8
:100640000021084600F002FD4FF4005000F03AF897
:100650000646042E24D11448006940F001001249D6
:1006600008612580F00200F02DF80646042E10D116
:10067000A01C0090280C00990880F00200F022F8DD
:1006800006460948006941F6FE71084006490861BE
:1006900006E00548006941F6FE710840024908611C
:1006A0003046F8BDFFFF0F08002002400248034912
:1006B00048600348486070472301674500200240B6
:1006C000AB89EFCD00B502460423FFF787FF034651
:1006D00003E0FFF783FF0346521E012B01D1002ADE
:1006E000F7D102B90523184600BD00002DE9F05FDF
:1006F00005460C464FF00009CA4600260027B046C2
:10070000B3465B498D4211D05A498D420ED05A49A9
:100710008D420BD059498D4208D059498D4205D0A0
:1007200058498D4202D058498D4201D1012100E043
:100730000021084600F08AFCE178A1B1E1780429A3
:1007400011D0E17828290ED0E17848290BD0E17842
:10075000142908D0E178102905D0E1781C2902D0AD
:10076000E178182901D1012100E00021084600F0BC
:100770006DFC002119B9218809B1012100E0002197
:10078000084600F063FCE07800F00F09E07800F024
:10079000100088B1A178012905D0A178022902D0E2
:1007A000A178032901D1012100E00021084600F0D1
:1007B0004DFCA07840EA0909207838B3D5F80080CC
:1007C00000261FE0012000FA06F7208800EA070A49
:1007D000BA4516D1B7000F2000FA07FB28EA0B082C
:1007E00009FA07F040EA0808E078282803D1012038
:1007F000B040686105E0E078482802D10120B040AF
:100800002861761C082EDDD3C5F800802088FF28DB
:100810002BDDD5F80480002623E006F10800012135
:1008200001FA00F7208800EA070ABA4518D1B70094
:100830000F2000FA07FB28EA0B0809FA07F040EA44
:100840000808E078282803D106F108008140696192
:10085000E078482804D106F108000121814029618F
:10086000761C082ED9D3C5F80480BDE8F09F00009F
:1008700000080140000C014000100140001401403C
:1008800000180140001C01400020014070B50446E2
:100890003420FFF75DFE2046FFF76CFE0546042D71
:1008A00001D1012070BD0020FCE710B5FFF7B0FEBC
:1008B00010BD70B504460D463420FFF749FE2946A9
:1008C0002046FFF7AFFE0646042E01D1012070BD81
:1008D0000020FCE710B5FFF7E9FE10BD10B52021A0
:1008E000034800F00DFA08B1012010BD0020FCE71C
:1008F0000038014000B585B0012144F2040000F049
:1009000091F84FF40070ADF8100018208DF8130026
:1009100003208DF8120004A91348FFF7E7FE4FF4F7
:100920008060ADF8100004208DF8130004A90E4873
:10093000FFF7DCFE4FF4165000900020ADF80400E5
:10094000ADF80600ADF80800ADF80C000C20ADF8CD
:100950000A006946054800F02DFA0121034800F01D
:1009600097F905B000BD00000008014000380140C3
:1009700010B500BF2021054800F0C2F90028F9D0C9
:10098000024800F00DFBC0B210BD0000003801406D
:1009900010B5044600BF8021044800F0B1F90028DA
:1009A000F9D02146014800F021FB10BD003801407C
:1009B0002DE9F041044614B90020BDE8F08106E0BD
:1009C000FFF7D6FF0646AA2E01D1267000E0F7E712
:1009D00000BFFFF7CDFF6070FFF7CAFFA070A078DF
:1009E000202801D90020E8E7002505E0FFF7C0FF37
:1009F000E11C4855681CC5B2A078A842F6DCFFF798
:100A0000B7FF84F82300A1786078E21CFFF78CFD23
:100A1000074694F82300B84201D00020CDE701201A
:100A2000CBE7000070B504460D461049214011B9CE
:100A30000CB1012100E00021084600F007FB0DB1D8
:100A4000012D01D1012100E00021084600F0FEFA4D
:100A50002DB10748806920430549886104E00448B6
:100A60008069A0430249886170BD00000200C0FF98
:100A70000010024030B500210022002400232D4D3B
:100A80006D6805F00C0121B1042905D0082923D196
:100A900005E0294D056022E0274D05601FE0254D4A
:100AA0006D6805F47012234D6D6805F480340225DD
:100AB00005EB92421CB9214D554305600BE01D4DDD
:100AC0006D6805F400351DB11C4D5543056002E00D
:100AD000194D5543056002E0174D056000BF00BF8A
:100AE000144D6D6805F0F0010909154D6B5C056842
:100AF000DD4045600F4D6D6805F4E061090A104D59
:100B00006B5C4568DD4085600A4D6D6805F4605199
:100B1000C90A0B4D6B5C4568DD40C560054D6D68CD
:100B200005F44041890B074D6B5CC568B5FBF3F5D7
:100B3000056130BD0010024000127A0000093D003E
:100B40000C0000201C00002010B500F001F810BDC2
:100B50000CB50020019000903348006840F48030CC
:100B60003149086000BF3048006800F40030009050
:100B70000198401C0190009818B90198B0F5A06F39
:100B8000F1D12948006800F4003010B10120009034
:100B900001E0002000900098012843D1234800681C
:100BA00040F01000214908600846006820F0070066
:100BB00008600846006840F0020008601A48406873
:100BC000194948600846406848600846406840F453
:100BD000806048600846406820F47C104860084601
:100BE000406840F4E81048600846006840F08070B3
:100BF000086000BF0C48006800F000700028F9D0C1
:100C00000948406820F003000749486008464068EA
:100C100040F00200486000BF0348406800F00C004C
:100C20000828F9D10CBD000000100240002002404D
:100C300010B51348006840F00100114908600846EB
:100C40004068104908400E494860084600680E494F
:100C500008400B4908600846006820F480200860BE
:100C60000846406820F4FE0048604FF41F0088608A
:100C7000FFF76AFF4FF000600449086010BD0000F4
:100C8000001002400000FFF8FFFFF6FE08ED00E054
:100C900070B504460D4615498C420BD014498C4260
:100CA00008D014498C4205D013498C4202D0134914
:100CB0008C4201D1012100E00021084600F0C6F974
:100CC0000DB1012D01D1012100E00021084600F005
:100CD000BDF925B1A08940F40050A08104E0A089AD
:100CE0004DF6FF710840A08170BD00000038014042
:100CF0000044004000480040004C004000500040CC
:100D000070B505460C46002625498D420BD0254975
:100D10008D4208D024498D4205D024498D4202D00D
:100D200023498D4201D1012100E00021084600F055
:100D30008DF9012C13D0802C11D0402C0FD0202CF9
:100D40000DD0102C0BD0B4F5807F08D0B4F5007F07
:100D500005D0082C03D0042C01D0022C01D1012194
:100D600000E00021084600F071F9B4F5007F0ED1D3
:100D70000B498D4205D00B498D4202D00A498D4264
:100D800001D1012100E00021084600F05FF9288828
:100D9000204008B1012600E00026304670BD00006A
:100DA000003801400044004000480040004C004032
:100DB000005000402DE9F04786B005460C4600265D
:100DC000B24600BFB14600276F498D420BD06F4934
:100DD0008D4208D06E498D4205D06E498D4202D0B9
:100DE0006D498D4201D1012100E00021084600F04B
:100DF0002DF9216829B1694A2168914201D2012166
:100E000000E00021084600F021F9A18819B1A1886D
:100E1000B1F5805F01D1012100E00021084600F01A
:100E200015F9E18859B1E188B1F5805F07D0E18813
:100E3000B1F5005F03D0E188B1F5405F01D1012138
:100E400000E00021084600F001F9218939B121892B
:100E5000B1F5806F03D02189B1F5C06F01D10121B7
:100E600000E00021084600F0F1F861894FF6F372C6
:100E7000114019B9618909B1012100E0002108463A
:100E800000F0E4F8A18959B1A189B1F5807F07D0BC
:100E9000A189B1F5007F03D0A189B1F5407F01D1CF
:100EA000012100E00021084600F0D0F8A08970B1CF
:100EB00035498D4205D035498D4202D034498D42A5
:100EC00001D1012100E00021084600F0BFF82F46C3
:100ED0002E8A4CF6FF700640E08806432E82AE89CB
:100EE0004EF6F3100640A088218908436189084323
:100EF0000643AE81AE8A4FF6FF400640A089064306
:100F0000AE8201A8FFF7B6FD1F48874202D1DDF887
:100F100010A001E0DDF80CA0A88900F4004040B169
:100F20000AEBCA0000EB0A1021684900B0FBF1F897
:100F300007E00AEBCA0000EB0A1021688900B0FB49
:100F4000F1F86420B8FBF0F006013009642101FBE0
:100F50001089A88900F4004040B1322000EBC9009C
:100F6000B0FBF1F000F00700064308E0322000EB90
:100F700009106421B0FBF1F000F00F0006432E8150
:100F800006B0BDE8F0870000003801400044004092
:100F900000480040004C00400050004021AA44009E
:100FA00010B504460C498C420BD00C498C4208D039
:100FB0000B498C4205D00B498C4202D00A498C4225
:100FC00001D1012100E00021084600F03FF8A0888F
:100FD000C0F3080010BD000000380140004400408C
:100FE00000480040004C00400050004070B50446EE
:100FF0000D4611498C420BD010498C4208D0104943
:101000008C4205D00F498C4202D00F498C4201D14D
:10101000012100E00021084600F018F8B5F5007F36
:1010200001DA012100E00021084600F00FF8C5F3C5
:101030000800A08070BD000000380140004400405E
:1010400000480040004C0040005000407047FFF74F
:101050003DFA00BFFEE70000781000080000002005
:10106000200000002801000898100008200000203F
:10107000880600004401000800000000004000084D
:10108000000000000000000001020304010203044C
:08109000060708090204060826
:04000005080000ED02
:00000001FF
